:020000040800F2
:1000000040050020450100088F1300083311000847
:100010008D130008DD0100084517000800000000EE
:100020000000000000000000000000009313000822
:10003000DF0100080000000091130008951300087C
:100040005F0100085F0100085F0100085F01000810
:100050005F0100085F0100085F0100085F01000800
:100060005F010008E10100085F0100085F0100086E
:100070005F0100085F0100085F0100085F010008E0
:100080005F0100085F0100085F0100085F010008D0
:100090005F0100085F0100085F0100085F010008C0
:1000A0005F0100085F0100085F0100085F010008B0
:1000B0005F0100085F0100085F0100085F010008A0
:1000C0005F0100085F0100085F0100085F01000890
:1000D0005F0100085F0100085F0100085F01000880
:1000E0005F0100085F0100085F0100085F01000870
:1000F0005F0100085F0100085F0100085F01000860
:100100005F0100085F0100085F0100085F0100084F
:100110005F0100085F010008ED130008F9130008F3
:100120005F0100085F0100085F0100085F0100082F
:10013000DFF80CD000F040F80048004745190008EF
:10014000400500200648804706480047FEE7FEE7D6
:10015000FEE7FEE7FEE7FEE7FEE7FEE7FEE7FEE777
:10016000E913000831010008D2B201E000F8012BC8
:10017000491EFBD270470022F6E710B513460A4627
:1001800004461946FFF7F0FF204610BD30B50B4678
:10019000014600202022012409E021FA02F59D42B7
:1001A00005D303FA02F5491B04FA02F52844151E8B
:1001B000A2F10102F1DC30BD064C074D06E0E0681B
:1001C00040F0010394E8070098471034AC42F6D39E
:1001D000FFF7B2FFA0190008C0190008FEE770473A
:1001E000082000F02DB872B6FEE7000010B5082810
:1001F00018D108210C4800F02BF90C4901280C4AB1
:100200000868406A0DD050601168401A00EB001079
:100210000A2190FBF1F19160BDE8104005A001F0CA
:1002200093BA106010BD0000000C0140680000206F
:1002300000000020BEE0C0EBCEAAA3BA25640A00ED
:10024000044910B50A68024202D00860FFF7CEFFE9
:1002500010BD0000140401402DE9F84FDFF8C891EB
:100260000024A9F1040B23460F2709F1040AABF17E
:10027000040ED1E00125A54006EA0502AA4276D186
:10028000DFF8A8C14E68A6EB0C0866452BD00DDC44
:10029000032E34D005DC36B3012E19D0022E2FD117
:1002A0001BE0112E16D0122E2AD119E0B8F5881FA6
:1002B00019D006DCB8F5803F15D0B8F5801F1FD1E6
:1002C00011E0B8F5001F0ED0B8F5041F18D10AE0F0
:1002D000CB6815E0CB681B1D12E0CB6808330FE03C
:1002E000CB680C330CE08B682BB1012B4FF008036B
:1002F00003D0456104E0042302E0056100E000232F
:10030000FF2A01D8064601E000F104064FEA840501
:1003100001D9A5F12005D6F8008007FA05FC28EAE6
:100320000C0803FA05F548EA0508C6F800804D6890
:10033000ED0070D53E4DAE6946F00106AE61AD6987
:1003400024F0030605F0010500953A4D06EB050C77
:10035000DCF80850A607360F07FA06F825EA080564
:10036000DFF8D480404503D14FF0000825E052E08B
:10037000DFF8C880404502D14FF001081DE0DFF8EA
:10038000C080404502D14FF0020816E0DFF8B4808B
:10039000404502D14FF003080FE0DFF8AC80404544
:1003A00002D14FF0040808E0DFF8A080404502D1F8
:1003B0004FF0050801E04FF0060808FA06F848EA91
:1003C0000508CCF808804D68D9F80060ED024D466C
:1003D00001D5164300E096432E604D68DAF80060C0
:1003E000AD02554601D5164300E096432E604D6898
:1003F000DBF80060AD035D4601D5164300E096438F
:100400002E604D68DEF80060ED03754601D5164399
:1004100000E096432E60641C0A681646E2407FF4B2
:1004200029AFBDE8F88F000008040140000011105A
:10043000001002400000014000080140000C014093
:10044000001001400014014000180140001C014050
:100450008068084000D0012070470AB101617047F0
:100460000904FBE701488068704700000C00002089
:100470000248816802781144816070470C000020B6
:10048000074810B5016841F010010160032000F039
:1004900075F80F2000F006F800F024F8002010BDD9
:1004A0000020024070B50D4D04464FF47A71287853
:1004B000B1FBF0F00A490968B1FBF0F000F0DCFA9A
:1004C00048B9102C07D200222146501E00F036F801
:1004D00000206C6070BD012070BD00000C00002089
:1004E000180000200C4808B5816941F001018161C4
:1004F000816901F001010091C16941F08051C16140
:10050000C06900F0805000900448416821F0E0612B
:1005100041F08061416008BD0010024000000140D0
:10052000002809DB00F01F020121914040098000F2
:1005300000F1E020C0F8001170470000F0B40E4B4D
:100540001B680C46C3F30223C3F10705042D00D931
:100550000425191D072901D2002300E0DB1E012616
:1005600006FA05F1491E214099409E40761E16402C
:100570003143F0BC01F0F8B80CED00E0064900F0A2
:10058000070208684FF6FF03184040EA0220034ABA
:1005900010430860704700000CED00E00000FA0511
:1005A0002DE9F0470F46050061D0434E306800F05A
:1005B0000700B84209D2306820F0070038433060A5
:1005C000306800F00700B84251D128683B4C8107E1
:1005D00012D5400703D5606840F4E0606060287879
:1005E000000703D5606840F4605060606068A968E7
:1005F00020F0F000084360602878C00728D06868C1
:10060000012810D02168022810D0890700292EDA8D
:10061000616821F0030101436160FFF723FF804619
:1006200041F288390DE021688903EFE78901EDE7A0
:10063000FFF718FFA0EB0801494502D90320BDE8E8
:10064000F0876068696800F00C00B0EB810FEFD1B3
:10065000306800F00700B8420BD9306820F007007E
:1006600038433060306800F00700B84201D0012004
:10067000E5E72878400705D56068E96820F4E06080
:10068000084360602878000706D56068296920F46F
:10069000605040EAC100606000F038F86168084AC4
:1006A000C1F30311515CC840064908600648006860
:1006B000FFF7F8FE0020C2E70020024000100240D1
:1006C0008619000818000020100000200448054981
:1006D00000684968044AC1F30221515CC840704770
:1006E000180000200010024096190008044805492F
:1006F00000684968044AC1F3C221515CC840704790
:100700001800002000100240961900080E4A516897
:100710000E4801F00C03042B11D0082B0FD10C480C
:10072000C1F38343C903C05C0AD55168084AC1F3C9
:100730004041921E515C054A5043B0FBF1F07047B6
:1007400004494843704700000010024000127A003C
:100750007619000800093D002DE9F84F040070D01B
:100760002078C04DC00749D06868C0F381000128D7
:1007700007D06868C0F38100022809D16868C00307
:1007800006D52868800339D560680028E7D035E0B1
:100790006068B0F5803F0BD010B1B0F5A02F11D03C
:1007A000286820F480302860286820F4802002E047
:1007B000286840F480302860606890B1FFF752FEEE
:1007C00006460AE0286840F480202860F0E700BF71
:1007D000FFF748FE801B642873D828688003F7D58C
:1007E0000CE0FFF73FFE064605E000BFFFF73AFECC
:1007F000801B6428F0D828688003F7D420789A4EAC
:1008000080074FF001094FF0000839D5686810F0F3
:100810000C0F07D06868C0F38100022809D168680E
:10082000C00306D42868800714D52069012808D1A0
:1008300010E02069B0B1C6F80090FFF713FE07463C
:1008400005E00AE1FFF70EFEC01B0228C4D82868A5
:100850008007F7D52868616920F0F80040EAC100F8
:1008600028600DE0C6F80080FFF7FCFD074604E0B5
:10087000FFF7F8FDC01B022823D828688007F7D4AB
:10088000207800072CD57948A169D9B1C0F800902B
:10089000FFF7E8FD074604E0FFF7E4FDC01B022870
:1008A0000FD8686A8007F7D571484FF4FA5100688D
:1008B000B0FBF1F0009000BF0098411E0091FAD209
:1008C0000EE080E0C0F80080FFF7CCFD074604E0B2
:1008D000FFF7C8FDC01B022875D8686A8007F7D4E7
:1008E0002078400760D5E8690027C00008D4E8698F
:1008F00040F08050E861E869012700F080500090E6
:100900005C480168C90513D40168834641F48071CD
:100910000160FFF7A7FD824606E000BFFFF7A2FDDA
:10092000A0EB0A0064284ED8DBF80000C005F5D51E
:10093000E06801280AD008B1052813D0286A20F001
:1009400001002862286A20F0040002E0286A40F0D2
:1009500001002862E06841F2883B98B1FFF782FD10
:1009600082460BE0286A40F004002862EEE700BFF0
:10097000FFF778FDA0EB0A0159455AD8286A80078D
:10098000F6D50CE0FFF76EFD824605E0FFF76AFD45
:10099000A0EB0A0159454CD8286A8007F6D41FB14C
:1009A000E86920F08050E861E06988B36968C1F3C4
:1009B0008101022944D00228C6F8608004D0FFF7E4
:1009C00051FD044638E034E0FFF74CFD074604E0F3
:1009D000FFF748FDC01B02282BD828688001F7D4F8
:1009E000206AB0F5803F05D16868A16820F4003026
:1009F00008436860D4E908010843696821F4741168
:100A000008436860C6F86090FFF72CFD044606E0D6
:100A100025E000BFFFF726FD001B022809D8286843
:100A20008001F7D51BE000BFFFF71CFD001B02286B
:100A300002D90320BDE8F88F28688001F4D40EE0C5
:100A40000128F7D06868226A00F48031914204D10D
:100A5000616A00F47010884201D00120EAE70020AA
:100A6000E8E70000001002400000424280044242D9
:100A7000180000200070004010B5401EB0F1807FCB
:100A800001D3012010BD4FF0E02460610F216017F9
:100A900000F06AFE0020A06107202061002010BD48
:100AA0007047704770B590F83C20012A2CD0012483
:100AB00080F83C40022280F83D2003685A689D6817
:100AC00022F070060A6832435A60104B02689A425C
:100AD0000ED00F4B9A420BD0B2F1804F08D00D4B85
:100AE0009A4205D00C4B9A4202D00C4B9A4204D148
:100AF000496825F080031943916080F83D4000214A
:100B000080F83C10084670BD022070BD002C0140EA
:100B1000003401400004004000080040000C004088
:100B200010B5040003D094F83D0010B107E0012097
:100B300010BD002084F83C00204600F01FF8022081
:100B400084F83D00211D206800F05CFC012084F841
:100B5000460084F83E0084F83F0084F8400084F8A2
:100B6000410084F8420084F8430084F8440084F88B
:100B7000450084F83D00002010BD000008B5154A6E
:100B80000168154891420ED1C16941F01001C1615F
:100B9000C069002200F01000009011463620FFF7D7
:100BA000CDFC362010E00D4A914211D1C16941F0CF
:100BB0002001C161C069002200F0200000901146B0
:100BC0003720FFF7BBFC3720BDE80840FFF7A8BC83
:100BD00008BD00000010004000100240001400405A
:100BE00090F83D10012901D001207047022180F8C2
:100BF0003D100168CA6842F00102CA6000680E49EF
:100C000088420ED00D4988420BD0B0F1804F08D0F9
:100C10000B49884205D00B49884202D00A498842D4
:100C200004D1816801F00701062903D0016841F071
:100C30000101016000207047002C01400034014098
:100C40000004004000080040000C00400168CA6831
:100C500022F00102CA6001680A6A41F211131A42C5
:100C600007D10A6A9B101A4203D10A6822F00102D6
:100C70000A60012180F83D1000207047704770B570
:100C80000446006801694FF00005C943890715D47F
:100C9000C168C943890711D4E91E01610120207789
:100CA000206880698007204602D0FFF7E7FF04E054
:100CB00000F0BCF8204600F05FF925772068016954
:100CC000C943490717D4C168C943490713D46FF012
:100CD00004010161022020772068806910F4407FC0
:100CE000204602D0FFF7CAFF04E000F09FF820463C
:100CF00000F042F9257720680169C943090716D435
:100D0000C168C943090712D46FF0080101610420CA
:100D100020772068C0698007204602D0FFF7AEFF29
:100D200004E000F083F8204600F026F925772068DB
:100D30000169C943C90617D4C168C943C90613D498
:100D40006FF010010161082020772068C06910F45D
:100D5000407F204602D0FFF791FF04E000F066F8E4
:100D6000204600F009F9257720680169C943C907C1
:100D700008D1C168C943C90704D1891E0161204651
:100D800000F0FCF820680169C943090609D4C1686C
:100D9000C943090605D46FF0800101612046FFF7C1
:100DA0007FFE20680169C943490609D4C168C94367
:100DB000490605D46FF040010161204600F000F9BA
:100DC00020680169C94389060BD4C168C9438906F3
:100DD00007D46FF0200101612046BDE87040FFF7A5
:100DE00060BE70BD00B585B00021009101910291F7
:100DF00003910068B0F1804F11D10A48816941F038
:100E0000040181618069694600F0040004900920B2
:100E100000900220019003900348FFF71DFA05B0EF
:100E200000BD00000010024000080140704770B58E
:100E3000044690F83C0000260D4601280FD0012002
:100E400084F83C006AB1042A1DD0082A2FD00C2A4D
:100E50003FD00126002084F83C00304670BD0220BF
:100E600070BD206800F014FB2068816941F0080122
:100E700081612068816921F00401816120688169B4
:100E80002A69114311E0206800F032FB2068816973
:100E900041F4006181612068816921F48061816190
:100EA000206881692A6941EA02218161D2E72068CC
:100EB00000F054FB2068C16941F00801C16120685D
:100EC000C16921F00401C1612068C1692A69114327
:100ED00011E0206800F076FB2068C16941F40061F0
:100EE000C1612068C16921F48061C1612068C16964
:100EF0002A6941EA0221C161ACE710B5040003D0C0
:100F000094F83D0010B107E0012010BD002084F8E6
:100F10003C00204600F01EF8022084F83D00211D10
:100F2000206800F06FFA012084F8460084F83E0043
:100F300084F83F0084F8400084F8410084F84200BF
:100F400084F8430084F8440084F8450084F83D00A8
:100F5000002010BD08B50068B0F1804F08D10548E9
:100F6000C16941F00101C161C06900F00100009058
:100F700008BD0000001002407047000070B5044634
:100F80000C480D4D844207D1012204212846FFF769
:100F900064FA0A48FFF724FE0848844208D1FFF7A4
:100FA00055FE2846BDE8704000220421FFF755BADF
:100FB00070BD00006800002000140140B000002057
:100FC000704770B5040004D094F84100002510B1BA
:100FD00006E0012070BD84F84050204600F024F85F
:100FE000242084F841002068C16821F40051C160C8
:100FF000204600F00FFB2068016921F49041016157
:101000002068416921F02A0141612068C16841F4EA
:101010000051C1606564202084F8410084F84200DA
:101020006563002070BD000030B585B000240094D9
:1010300001940294039400681449884224D114480E
:10104000816941F480418161816901F480410491A9
:10105000816941F00401816180690E4D00F0040056
:1010600004904FF400700090022001900320039040
:1010700069462846FFF7F0F82815CDE900046946CF
:1010800028460294FFF7E8F805B030BD003801406B
:1010900000100240000801402DE9F843044690F892
:1010A00041001F4616460D46202802D00220BDE80A
:1010B000F8837DB176B100206064212084F841007E
:1010C000FFF7D0F9A6848046E684A068B0F5805F7B
:1010D00002D003E00120EAE7206910B12E46002586
:1010E0000EE000260CE08021204600F0EFFAA0B9C7
:1010F000AEB116F8010B21684860E08C401EE08418
:10110000E08C43464FF0000200970028EBD14FF0EF
:101110004001204600F0DAFA30B10320C7E735F885
:10112000020BC0F30800E6E7202084F8410000200D
:10113000BDE7FEE72DE9F04786B000243A48009469
:10114000019402940394816941F0040181618169F1
:1011500001F004010491816941F008018161816914
:1011600001F008010491816941F0200181618069E9
:10117000DFF8B88000F020000490002206214046ED
:10118000FFF76BF9DFF8A890002204214846FFF72B
:1011900064F9DFF8A0A04FF4E0770022394650460A
:1011A000FFF75BF9062001250226CDE90005CDE910
:1011B000024669464046FFF74FF84020CDE900045B
:1011C000694640460294FFF747F84BF20100CDE92B
:1011D0000004694650460294FFF73EF80420CDE92A
:1011E0000005CDE9024669464846FFF735F8082074
:1011F00000901148CDE9010469465046FFF72CF8EC
:1012000000970396CDE9015469465046FFF724F84C
:10121000002211460920FFF791F90920FFF780F914
:1012200006B0BDE8F0870000001002400008014051
:1012300000140140000C01400000311010B58AB0CC
:10124000002407941C2168460894FEF794FF1B486D
:101250004FF08041016040F21F31C0E901144FF4AA
:101260007A71C0E9031480218161FFF746FE08B15D
:10127000FEF7B9FF079407A910480894FFF712FC7E
:1012800008B1FEF7B0FF602000906420CDE90104B2
:101290000022694609480494FFF7C9FD08B1FEF72A
:1012A000A2FF0C2269460548FFF7C1FD08B1FEF711
:1012B0009AFF0248FFF796FD0AB010BD20000020FB
:1012C0001CB50024104800940E490194016040F2BE
:1012D0001F31C0E9011442F21071C16080218161A7
:1012E000FFF71EFC08B1FEF77EFF2020CDE90004C9
:1012F00069460548FFF7D6FB002801D0FEF773FFCB
:101300001CBD000000100040680000201CB5002437
:101310000F4800940D49019401600721C0E90114B0
:101320001421C16080218161FFF7FAFB08B1FEF74B
:101330005AFF2020CDE9000469460548FFF7B2FBBB
:10134000002801D0FEF74FFF1CBD00000014004034
:10135000B00000200C4810B50A4901604FF4E1319B
:101360004160002181600C22C160C0E904128161EA
:10137000C161FFF726FE002803D0BDE81040FEF74C
:1013800032BF10BD00380140F8000020FEE7FEE744
:1013900070477047FFF76CB810B590B028216846C9
:1013A000FEF7E9FE14210AA8FEF7E5FE02200090F0
:1013B0000120049010200024059007946846FFF750
:1013C000CBF908B172B6FEE70F20CDE90A040C9400
:1013D0000D9400210AA80E94FFF7E2F8002801D02E
:1013E00072B6FEE710B010BD704700000148FFF76D
:1013F00046BC0000680000200148FFF740BC000028
:10140000B0000020F0B502681C4B1D4D1D4E1E4F54
:101410001E4C4FF0804C984209D0A04207D0604546
:1014200005D0A84203D0B04201D0B84204D122F086
:10143000700E4A6842EA0E02984209D0A04207D0D4
:10144000604505D0A84203D0B04201D0B84203D1D4
:1014500022F44075CA682A434D6922F080022A436B
:1014600002608A68C2620A688262984201D0A04221
:1014700001D10969016301214161F0BD002C0140E6
:101480000004004000080040000C0040003401400F
:10149000F0B5036A026A22F00102026242688469BE
:1014A000124E24F073050C682C4323F002058B6860
:1014B0002B430D4DA84201D0B04205D123F00807BF
:1014C000CB683B4323F00403A84201D0B04205D1CE
:1014D0004D6922F4407215438A692A43426084614F
:1014E000496841630362F0BD002C014000340140B3
:1014F000F0B5026A036A23F010030362436884694B
:101500000D6824F4E64444EA05248D6822F02002A4
:1015100042EA05120F4D104EA84201D0B04206D14A
:10152000CF6822F0800242EA071222F04002A8426D
:1015300001D0B04207D14D6923F4406343EA8503EB
:101540008D6943EA8503436084614968816302626F
:10155000F0BD0000002C014000340140F0B5026AEB
:10156000036A23F4807303624368C46922F400723F
:1015700024F073050C68124E2C438D6842EA052254
:101580000E4DA84201D0B04206D1CF6822F40062CD
:1015900042EA072222F48062A84201D0B04207D179
:1015A0004D6923F4405343EA05138D6943EA05135B
:1015B0004360C4614968C1630262F0BD002C014010
:1015C0000034014030B5046A026A22F4805202629B
:1015D0004268C3690D6823F4E64343EA05238D6836
:1015E00024F4005444EA0534084DA84202D0084DC2
:1015F000A84204D14D6922F4804242EA8512426039
:10160000C36149680164046230BD0000002C0140E0
:101610000034014070B5044600680169E26821F4B5
:101620004051114301612169A06808436169084381
:101630002168CA6841F20C639A430243CA60206879
:101640004169A26921F44071114341611E4920683A
:10165000884202D1FFF74AF801E0FFF737F800EBC4
:10166000C00101EB0012606864218000B2FBF0F35E
:10167000B3FBF1F36FF018067343B2FBF0F5B2FB66
:10168000F0F605EB8305322303EB0515B5FBF1F509
:10169000B6FBF1F605F0F00505EB0615B2FBF0F62A
:1016A000B2FBF0F0B0FBF1F06FF01802504306EB24
:1016B000800003EB0010B0FBF1F0216800F00F0098
:1016C0002844886070BD0000003801402DE9F041D9
:1016D000984617460E460446069D27E0681C25D00E
:1016E0002DB1FEF7BFFEA0EB0800A8421ED920686E
:1016F0000C3050E8001F21F4D07140E80012002A9D
:10170000F5D12068143050E8001F21F0010140E8B5
:101710000012002AF5D1202084F8410084F842000C
:10172000002084F840000320BDE8F08120680068B4
:1017300036EA000004D00020B842CFD00020F3E702
:101740000120F9E7FEE700000FB4054B10B503A92F
:10175000044A029800F028F810BC5DF814FB000061
:101760002D1900081C0000200907090E002804DBC1
:1017700000F1E02080F80014704700F00F0000F145
:10178000E02080F8141D704702E008C8121F08C14D
:10179000002AFAD170477047002001E001C1121FF2
:1017A000002AFBD1704700002DE9FF4F89B09B460E
:1017B0000446002506E025280BD05A460B99904791
:1017C000641C6D1C20780028F5D10DB02846BDE8BA
:1017D000F08F0027B8460122474900E0074314F87C
:1017E000013F203B02FA03F00842F7D120782E286F
:1017F00019D114F8010F47F004072A280ED06FF012
:101800002F022078A0F1300109290CD808EB8801BB
:1018100002EB410100EB0108641CF2E70A98641C2A
:1018200050F8048B0A9020780028CED0642808D085
:10183000692806D075281ED05A460B9990476D1C12
:1018400058E00A994FF00A0901C90A91002802DA02
:1018500040422D2102E0390504D52B218DF82010BE
:10186000012103E0F90704D02021F7E78A4608AEFA
:101870000DE00021FAE70A994FF00A0901C90A911F
:10188000F7E74946FEF782FC303106F8011D0028D3
:10189000F7D1ADEB060000F12009780701D44FF035
:1018A0000108C84502DDA8EB090000E000208046E1
:1018B000002706E008A85A46C05D0B9990476D1CAA
:1018C0007F1C5745F6DB04E030205A460B999047C1
:1018D0006D1CB8F10001A8F10108F5DC05E016F86F
:1018E000010B5A460B9990476D1CB9F10001A9F103
:1018F0000109F4DC641C65E70928010070B50A4D94
:10190000044602464FF480712846FEF7A6FD2246A3
:1019100080212846FEF7A1FD22462846BDE87040FA
:101920004021FEF79ABD0000000C014013B54FF6B0
:10193000FF73012269460248FFF7AEFB00981CBD09
:10194000F8000020FEF79CFDFFF726FDFFF7F2FBF5
:10195000FFF7B6FCFFF7FEFCFFF7D8FCFFF76EFCC5
:101960000348FFF73DF90120FFF7C8FFFEE700003D
:1019700068000020010202030405060708090A0B9B
:101980000C0D0E0F101000000000000000000102FE
:101990000304060708090000000001020304000018
:1019A000C01900080000002020000000881700086F
:1019B000E01900082000002020050000981700080A
:1019C0000000000000000000000000000100000016
:1019D00010000000000000000024F40000000000DF
:0400000508000131BD
:00000001FF
